:020000040000fa
:080000000002040000000000f2
:020000040000fa
:100400006f8620006efe20000e01880000000000b4
:100410000c0007008053200001002000110007009d
:10042000000020000000e000020032000000020096
:100430000000000050040200000000000040da004c
:100440000000fe004440a900000020000000e00081
:100450000300320000002000a00188004440a800f2
:100460000000060091018800800078000000eb0089
:1004700015003700e280400032a0b4009101ba00bc
:10048000e280400032a0b4009102ba00e280400055
:1004900032a0b4000002eb00472bde00f507b200eb
:1004a000602ce10004003a000059eb008301e900f0
:1004b000fdff3e00040037006128e100010032002a
:1004c0000082eb00040007001101ba000200e00006
:1004d000e8ff3a00000006003159ba008301e90044
:1004e0000c0032002159ba008301e90008003200f3
:1004f0000400e00003003a00e280400032a0b400b3
:10050000f5ff370011d9ba008301e900faff3a007c
:100510008100e800e180400032a0b4000000060045
:100520000040da000000fe00801f78004000b000ac
:100530000008eb004f007800801f7800100090004a
:100540000018eb000018eb000018eb000018eb009f
:100550000008eb004f0078000000060000a0fe003d
:10056000841f7800851f7800881f78008a1f780014
:100570004400f800080f20002802880000049000c2
:100580001005900030019000c00190009a05900085
:100590002b0598009a0578001b0598000300ca00f7
:1005a0000280ca000030cb001a00cd00380278006b
:1005b000ba0278004604c0004604c0000580ca00a4
:1005c0000030cb004604c0000580ca000000cb000c
:1005d0001e04c0001201c0000100cd009a05780081
:1005e0001b059800010d7800210098004400f900d7
:1005f0004f0578004f047800cf0278004f02780052
:080600000080fe00000006006e
:020000040000fa
:0200000401f009
:04000c00f8ff0000f9
:020000040000fa
:0200000401f009
:040010007bff000072
:020000040000fa
:0200000401f009
:040014007fff00006a
:020000040000fa
:0200000401f009
:04001800ffff0000e6
:020000040000fa
:0200000401f009
:04001c00deff000003
:020000040000fa
:1000080090020000900200009002000090020000a0
:100018009002000090020000900200009002000090
:10002800900200009002000090020000da04000034
:100038009002000090020000900200009002000070
:100048009002000090020000900200009002000060
:100058009002000090020000900200009002000050
:10006800900200009002000090020000ec040000e2
:100078009002000090020000900200009002000030
:100088009002000090020000900200009002000020
:100098009002000090020000900200009002000010
:1000a8009002000090020000900200009002000000
:1000b80090020000900200009002000090020000f0
:1000c80090020000900200009002000090020000e0
:1000d80090020000900200009002000090020000d0
:1000e80090020000900200009002000090020000c0
:1000f80090020000900200009002000090020000b0
:10010800900200009002000090020000900200009f
:10011800900200009002000090020000900200008f
:10012800900200009002000090020000900200007f
:10013800900200009002000090020000900200006f
:10014800900200009002000090020000900200005f
:10015800900200009002000090020000900200004f
:10016800900200009002000090020000900200003f
:10017800900200009002000090020000900200002f
:10018800900200009002000090020000900200001f
:10019800900200009002000090020000900200000f
:1001a80090020000900200009002000090020000ff
:1001b80090020000900200009002000090020000ef
:1001c80090020000900200009002000090020000df
:1001d8009002000090020000900200000e0500004e
:1001e80090020000900200009002000090020000bf
:0801f8009002000090020000db
:020000040000fa
:10020800900200009002000090020000900200009e
:10021800900200009002000090020000900200008e
:10022800900200009002000090020000da04000032
:10023800900200009002000090020000900200006e
:10024800900200009002000090020000900200005e
:10025800900200009002000090020000900200004e
:10026800900200009002000090020000ec040000e0
:10027800900200009002000090020000900200002e
:10028800900200009002000090020000900200001e
:10029800900200009002000090020000900200000e
:1002a80090020000900200009002000090020000fe
:1002b80090020000900200009002000090020000ee
:1002c80090020000900200009002000090020000de
:1002d80090020000900200009002000090020000ce
:1002e80090020000900200009002000090020000be
:1002f80090020000900200009002000090020000ae
:10030800900200009002000090020000900200009d
:10031800900200009002000090020000900200008d
:10032800900200009002000090020000900200007d
:10033800900200009002000090020000900200006d
:10034800900200009002000090020000900200005d
:10035800900200009002000090020000900200004d
:10036800900200009002000090020000900200003d
:10037800900200009002000090020000900200002d
:10038800900200009002000090020000900200001d
:10039800900200009002000090020000900200000d
:1003a80090020000900200009002000090020000fd
:1003b80090020000900200009002000090020000ed
:1003c80090020000900200009002000090020000dd
:1003d8009002000090020000900200000e0500004c
:1003e80090020000900200009002000090020000bd
:0803f8009002000090020000d9
:020000040000fa
:100608000000fa0043e4a80043c4a80031442000d5
:100618009140780030cfb30000c0600043e4b700d9
:1006280043a4a9004384a9004324a9004304a900c2
:1006380042c4bf00f043b20042e4b70040c4bf0068
:10064800f043b20040e4b700800120005022880047
:1006580000032000602288004004a9004124a9006a
:1006680044c4bf003040b30044e4b70055c4bf00e1
:100678006f40600055e4b700414520009140780084
:1006880000ccb30000c060000004a00054e4b70030
:100698008004200030228800400620009022880034
:1006a8000080fa00000006000000fa000103a9001b
:1006b80000e3a90000c3a90000a3a900013020009d
:1006c8009140780080cfb30000c060005040b30074
:1006d80000e3b70091e0a900b10d20009140780037
:1006e800f0c8b30000c0600001c5b300014070004d
:1006f800dbe0b700a1e0a8000243a9000263a9005b
:100708000283a9000623a9000be3a800b13020004a
:100718009140780000ceb30000c060000024a00023
:100728000be3b7000643a9000ce3a900c130200081
:100738009140780000ceb30000c060000024a00003
:100748000ce3b7000080fa00000006000000fa0081
:1007580000852000d042880060ff2000e042880029
:10076800a08520006eff0700d142800020312700bd
:1007780080087800d04280008080e80070d820008f
:1007880080087800d0428000e4004000f0a72900eb
:1007980080087800d0428000e600400000ac2000cd
:1007a80080087800d0428000e8004000f0532f0015
:1007b80080087800207f2000104388000000eb00ac
:1007c800004388000080fa00000006000000fa00dc
:1007d80005003700100020001a00070010438000b1
:1007e800201db0001043880011438000003026000f
:1007f800808f5000f7ff3400003026001043880037
:100808000080fa00000006000000fa00c902a800f3
:100818009660a8006100a8006900a800d10a20001d
:1008280091407800f0c8b30000c0600001c4b30074
:1008380001407000ade0b7008660a9000080fa00b2
:10084800000006000200fa00000f78000000eb002c
:100858002043880000c4290010088800510a20009d
:1008680091407800f0c8b30000c0600001c4b30034
:1008780001407000a5e0b7009460a80005e1a80059
:10088800204380009e0f5000fdff390005e1a900bc
:100898000080fa00000006000200fa009002200022
:1008a800303a880044c7bf00f043b20044e7b700bd
:1008b800417420009140780000ceb30000c0600071
:1008c80044e7b7001200200081072000a00920009b
:1008d8003374200081497800804978008249780083
:1008e80012002000610420007005200023742000fd
:1008f80081497800804978008249780043c7bf0061
:100908000047b200f04f5000fcff3a0042c7bf005a
:100918000042b2000004e000fcff320050c7a8000b
:1009280051a7a80051c7bf007040b30051e7b700f6
:1009380051e7a80051c7bf000044b2000004e0001e
:10094800fcff320030c52000202088002cff070063
:1009580055ff07007dff0700abff070001e3a80074
:1009680001e4a80099ff07000000370006c3bf0094
:10097800644060000004e000030032004019800079
:10098800000f78000643a900701820009e0f100081
:1009980003003400603420009e0f1000f3ff340081
:1009a8004324a8004304a800f0ff3700801f780004
:1009b8000000fa00204380000000e800204388007f
:1009c8008460a9000080fa004f007800004006000b
:1009d800801f78000200fa0006c3bf006440600070
:1009e8000004e000fcff320050198000000f78007e
:1009f8001e0078004500dd00000f78001e0078001a
:100a0800104388008660a9000080fa004f00780033
:100a180000400600801f7800811f7800821f780040
:100a2800a085200031198000c508dd00310098003c
:100a3800ae02020000000000a00090008004200028
:100a48000008e600800078004388de003022880035
:100a58000623a90091e0a9004f017800cf00780093
:080a68004f0078000040060079
:020000040000fa
:100a70005a0800000a0000000000000050080000b2
:100a80000a00000000000000f60f00000a0000004d
:100a900000000000640800000200000002000000e6
:080aa00000000000000000004e
:00000001FF
