:020000040000fa
:080000000002040000000000f2
:020000040000fa
:04000800fe020000f4
:020000040000fa
:04000c00fe020000f0
:020000040000fa
:04001000fe020000ec
:020000040000fa
:04001400fe020000e8
:020000040000fa
:04001800fe020000e4
:020000040000fa
:04001c00fe020000e0
:020000040000fa
:04002000fe020000dc
:020000040000fa
:04002400fe020000d8
:020000040000fa
:04002800fe020000d4
:020000040000fa
:04002c00fe020000d0
:020000040000fa
:04003000fe020000cc
:020000040000fa
:04003400c8020000fe
:020000040000fa
:04003800fe020000c4
:020000040000fa
:04003c00fe020000c0
:020000040000fa
:04004000fe020000bc
:020000040000fa
:04004400fe020000b8
:020000040000fa
:04004800fe020000b4
:020000040000fa
:04004c00fe020000b0
:020000040000fa
:04005000fe020000ac
:020000040000fa
:04005400fe020000a8
:020000040000fa
:04005800fe020000a4
:020000040000fa
:04005c00fe020000a0
:020000040000fa
:04006000fe0200009c
:020000040000fa
:04006400fe02000098
:020000040000fa
:04006800fe02000094
:020000040000fa
:04006c00fe02000090
:020000040000fa
:04007000fe0200008c
:020000040000fa
:04007400da020000ac
:020000040000fa
:04007800fe02000084
:020000040000fa
:04007c00fe02000080
:020000040000fa
:04008000fe0200007c
:020000040000fa
:04008400fe02000078
:020000040000fa
:04008800fe02000074
:020000040000fa
:04008c00fe02000070
:020000040000fa
:04009000fe0200006c
:020000040000fa
:04009400fe02000068
:020000040000fa
:04009800fe02000064
:020000040000fa
:04009c00fe02000060
:020000040000fa
:0400a000fe0200005c
:020000040000fa
:0400a400fe02000058
:020000040000fa
:0400a800fe02000054
:020000040000fa
:0400ac00fe02000050
:020000040000fa
:0400b000fe0200004c
:020000040000fa
:0400b400fe02000048
:020000040000fa
:0400b800fe02000044
:020000040000fa
:0400bc00fe02000040
:020000040000fa
:0400c000fe0200003c
:020000040000fa
:0400c400fe02000038
:020000040000fa
:0400c800fe02000034
:020000040000fa
:0400cc00fe02000030
:020000040000fa
:0400d000fe0200002c
:020000040000fa
:0400d400fe02000028
:020000040000fa
:0400d800fe02000024
:020000040000fa
:0400dc00fe02000020
:020000040000fa
:0400e000fe0200001c
:020000040000fa
:0400e400fe02000018
:020000040000fa
:0400e800fe02000014
:020000040000fa
:0400ec00fe02000010
:020000040000fa
:0400f000fe0200000c
:020000040000fa
:0400f400fe02000008
:020000040000fa
:0400f800fe02000004
:020000040000fa
:0400fc00fe02000000
:020000040000fa
:04010000fe020000fb
:020000040000fa
:04010400fe020000f7
:020000040000fa
:04010800fe020000f3
:020000040000fa
:04010c00fe020000ef
:020000040000fa
:04011000fe020000eb
:020000040000fa
:04011400fe020000e7
:020000040000fa
:04011800fe020000e3
:020000040000fa
:04011c00fe020000df
:020000040000fa
:04012000fe020000db
:020000040000fa
:04012400fe020000d7
:020000040000fa
:04012800fe020000d3
:020000040000fa
:04012c00fe020000cf
:020000040000fa
:04013000fe020000cb
:020000040000fa
:04013400fe020000c7
:020000040000fa
:04013800fe020000c3
:020000040000fa
:04013c00fe020000bf
:020000040000fa
:04014000fe020000bb
:020000040000fa
:04014400fe020000b7
:020000040000fa
:04014800fe020000b3
:020000040000fa
:04014c00fe020000af
:020000040000fa
:04015000fe020000ab
:020000040000fa
:04015400fe020000a7
:020000040000fa
:04015800fe020000a3
:020000040000fa
:04015c00fe0200009f
:020000040000fa
:04016000fe0200009b
:020000040000fa
:04016400fe02000097
:020000040000fa
:04016800fe02000093
:020000040000fa
:04016c00fe0200008f
:020000040000fa
:04017000fe0200008b
:020000040000fa
:04017400fe02000087
:020000040000fa
:04017800fe02000083
:020000040000fa
:04017c00fe0200007f
:020000040000fa
:04018000fe0200007b
:020000040000fa
:04018400fe02000077
:020000040000fa
:04018800fe02000073
:020000040000fa
:04018c00fe0200006f
:020000040000fa
:04019000fe0200006b
:020000040000fa
:04019400fe02000067
:020000040000fa
:04019800fe02000063
:020000040000fa
:04019c00fe0200005f
:020000040000fa
:0401a000fe0200005b
:020000040000fa
:0401a400fe02000057
:020000040000fa
:0401a800fe02000053
:020000040000fa
:0401ac00fe0200004f
:020000040000fa
:0401b000fe0200004b
:020000040000fa
:0401b400fe02000047
:020000040000fa
:0401b800fe02000043
:020000040000fa
:0401bc00fe0200003f
:020000040000fa
:0401c000fe0200003b
:020000040000fa
:0401c400fe02000037
:020000040000fa
:0401c800fe02000033
:020000040000fa
:0401cc00fe0200002f
:020000040000fa
:0401d000fe0200002b
:020000040000fa
:0401d400fe02000027
:020000040000fa
:0401d800fe02000023
:020000040000fa
:0401dc00fe0200001f
:020000040000fa
:0401e000fe0200001b
:020000040000fa
:0401e40050050000c2
:020000040000fa
:0401e800fe02000013
:020000040000fa
:0401ec00fe0200000f
:020000040000fa
:0401f000fe0200000b
:020000040000fa
:0401f400fe02000007
:020000040000fa
:0401f800fe02000003
:020000040000fa
:04020800fe020000f2
:020000040000fa
:04020c00fe020000ee
:020000040000fa
:04021000fe020000ea
:020000040000fa
:04021400fe020000e6
:020000040000fa
:04021800fe020000e2
:020000040000fa
:04021c00fe020000de
:020000040000fa
:04022000fe020000da
:020000040000fa
:04022400fe020000d6
:020000040000fa
:04022800fe020000d2
:020000040000fa
:04022c00fe020000ce
:020000040000fa
:04023000fe020000ca
:020000040000fa
:04023400c8020000fc
:020000040000fa
:04023800fe020000c2
:020000040000fa
:04023c00fe020000be
:020000040000fa
:04024000fe020000ba
:020000040000fa
:04024400fe020000b6
:020000040000fa
:04024800fe020000b2
:020000040000fa
:04024c00fe020000ae
:020000040000fa
:04025000fe020000aa
:020000040000fa
:04025400fe020000a6
:020000040000fa
:04025800fe020000a2
:020000040000fa
:04025c00fe0200009e
:020000040000fa
:04026000fe0200009a
:020000040000fa
:04026400fe02000096
:020000040000fa
:04026800fe02000092
:020000040000fa
:04026c00fe0200008e
:020000040000fa
:04027000fe0200008a
:020000040000fa
:04027400da020000aa
:020000040000fa
:04027800fe02000082
:020000040000fa
:04027c00fe0200007e
:020000040000fa
:04028000fe0200007a
:020000040000fa
:04028400fe02000076
:020000040000fa
:04028800fe02000072
:020000040000fa
:04028c00fe0200006e
:020000040000fa
:04029000fe0200006a
:020000040000fa
:04029400fe02000066
:020000040000fa
:04029800fe02000062
:020000040000fa
:04029c00fe0200005e
:020000040000fa
:0402a000fe0200005a
:020000040000fa
:0402a400fe02000056
:020000040000fa
:0402a800fe02000052
:020000040000fa
:0402ac00fe0200004e
:020000040000fa
:0402b000fe0200004a
:020000040000fa
:0402b400fe02000046
:020000040000fa
:0402b800fe02000042
:020000040000fa
:0402bc00fe0200003e
:020000040000fa
:0402c000fe0200003a
:020000040000fa
:0402c400fe02000036
:020000040000fa
:0402c800fe02000032
:020000040000fa
:0402cc00fe0200002e
:020000040000fa
:0402d000fe0200002a
:020000040000fa
:0402d400fe02000026
:020000040000fa
:0402d800fe02000022
:020000040000fa
:0402dc00fe0200001e
:020000040000fa
:0402e000fe0200001a
:020000040000fa
:0402e400fe02000016
:020000040000fa
:0402e800fe02000012
:020000040000fa
:0402ec00fe0200000e
:020000040000fa
:0402f000fe0200000a
:020000040000fa
:0402f400fe02000006
:020000040000fa
:0402f800fe02000002
:020000040000fa
:0402fc00fe020000fe
:020000040000fa
:04030000fe020000f9
:020000040000fa
:04030400fe020000f5
:020000040000fa
:04030800fe020000f1
:020000040000fa
:04030c00fe020000ed
:020000040000fa
:04031000fe020000e9
:020000040000fa
:04031400fe020000e5
:020000040000fa
:04031800fe020000e1
:020000040000fa
:04031c00fe020000dd
:020000040000fa
:04032000fe020000d9
:020000040000fa
:04032400fe020000d5
:020000040000fa
:04032800fe020000d1
:020000040000fa
:04032c00fe020000cd
:020000040000fa
:04033000fe020000c9
:020000040000fa
:04033400fe020000c5
:020000040000fa
:04033800fe020000c1
:020000040000fa
:04033c00fe020000bd
:020000040000fa
:04034000fe020000b9
:020000040000fa
:04034400fe020000b5
:020000040000fa
:04034800fe020000b1
:020000040000fa
:04034c00fe020000ad
:020000040000fa
:04035000fe020000a9
:020000040000fa
:04035400fe020000a5
:020000040000fa
:04035800fe020000a1
:020000040000fa
:04035c00fe0200009d
:020000040000fa
:04036000fe02000099
:020000040000fa
:04036400fe02000095
:020000040000fa
:04036800fe02000091
:020000040000fa
:04036c00fe0200008d
:020000040000fa
:04037000fe02000089
:020000040000fa
:04037400fe02000085
:020000040000fa
:04037800fe02000081
:020000040000fa
:04037c00fe0200007d
:020000040000fa
:04038000fe02000079
:020000040000fa
:04038400fe02000075
:020000040000fa
:04038800fe02000071
:020000040000fa
:04038c00fe0200006d
:020000040000fa
:04039000fe02000069
:020000040000fa
:04039400fe02000065
:020000040000fa
:04039800fe02000061
:020000040000fa
:04039c00fe0200005d
:020000040000fa
:0403a000fe02000059
:020000040000fa
:0403a400fe02000055
:020000040000fa
:0403a800fe02000051
:020000040000fa
:0403ac00fe0200004d
:020000040000fa
:0403b000fe02000049
:020000040000fa
:0403b400fe02000045
:020000040000fa
:0403b800fe02000041
:020000040000fa
:0403bc00fe0200003d
:020000040000fa
:0403c000fe02000039
:020000040000fa
:0403c400fe02000035
:020000040000fa
:0403c800fe02000031
:020000040000fa
:0403cc00fe0200002d
:020000040000fa
:0403d000fe02000029
:020000040000fa
:0403d400fe02000025
:020000040000fa
:0403d800fe02000021
:020000040000fa
:0403dc00fe0200001d
:020000040000fa
:0403e000fe02000019
:020000040000fa
:0403e40050050000c0
:020000040000fa
:0403e800fe02000011
:020000040000fa
:0403ec00fe0200000d
:020000040000fa
:0403f000fe02000009
:020000040000fa
:0403f400fe02000005
:020000040000fa
:0403f800fe02000001
:020000040000fa
:100400006f8120006efe20000e01880000000000b9
:10041000000020000000e000020032000001200087
:100420002002880014000700ae0007000000e00072
:1004300003003a00a057200001002000020037000e
:100440000000200001002000810f70000100320038
:1004500014000700000020000000e000020032004d
:100460000000020000000000b004020000000000d4
:100470000040da000000fe004440a9000000200017
:100480000000e0000300320000002000a00188000e
:100490004440a800000006008a1f78008b1f7800e7
:1004a0000000060091018800800478000000eb0045
:1004b0001a003700e284440032a0b4009905ba0063
:1004c000e284440032a0b4009906ba00e2844400f9
:1004d00032a0b4000006eb00476fde00fd07b2005b
:1004e000636ce10003003a00ebff07000000eb0043
:1004f0000a003700606ce10004003a00005deb0088
:100500008b05e900fdff3e00040037006168e10053
:10051000010032000086eb000b00070019c7ba008b
:100520001905ba000e04e00003003a000a00e000da
:10053000e0ff3a0000000600fe07b2009e018800be
:100540008a047800f5ff3700395dba008b05e900b1
:100550000c003200295dba008b05e900080032006a
:100560000c00e00003003a00e284440032a0b40032
:10057000f5ff370019ddba008b05e900faff3a00f4
:100580008904e800e184440032a0b40000000600c1
:10059000801f78000000fa00a04080000000e80002
:1005a000a04088008460a9000080fa004f00780015
:1005b00000400600809fbe000200fa00000000001c
:1005c00030188000640060000000e000fcff320092
:1005d00050198000000f78001e0078004500dd00f3
:1005e000000f78009e007800414088008660a900d6
:1005f0000080fa004f00be00004006000040da0014
:100600000000fe00801f78004000b0000008eb00f2
:100610004f007800801f7800100090000018eb0059
:100620000018eb000018eb000018eb000008eb00ce
:100630004f0078000000060000a0fe00841f780034
:10064000851f7800881f78008a1f78004400f80012
:10065000080f200028028800000490001005900078
:1006600030019000c00190009a0590002b05980081
:100670009a0578001b0598000300ca000280ca0092
:100680000030cb001a00cd0038027800ba027800a2
:100690004604c0004604c0000580ca000030cb00fc
:1006a0004604c0000580ca000000cb001e04c00044
:1006b0001201c0000100cd009a0578001b059800ca
:1006c000010d7800210098004400f9004f057800e2
:1006d0004f047800cf0278004f0278000080fe00bf
:0806e000000006000000050007
:020000040000fa
:1006e8000000fa0043e4a80043c4a80011228000d7
:1006f800f03f2f00008060001022880043a4a9006a
:100708004384a9004324a9004304a90011228000be
:10071800f0f32f0000806000102288000122800082
:10072800f0f32f0000806000002288008001200084
:100738005022880000032000602288004004a9009d
:100748004124a900202280003000b3002022880024
:10075800a1228000f0ff200000806000a022880015
:10076800a122800000fc2f00008060000000a00093
:10077800a022880080042000302288004006200043
:10078800902288000080fa00000006000000fa00ad
:100798000103a90000e3a90000c3a90000a3a90060
:1007a8000118800080ff2f00008060005000b30017
:1007b8000018880091e0a900d1068000f0ff280009
:1007c800808060000000250001007000d0068800cd
:1007d800a1e0a8000243a9000263a9000283a900be
:1007e8000623a9000be3a80051188000f00f2e0083
:1007f8000080600000a0a000501888000643a900ef
:100808000ce3a9006118800000fe2f000080600042
:100818000020a000601888000080fa000000060090
:100828000000fa00a08020000040880060ff20003f
:10083800104088000080200070ff07000040800002
:100848002131270001087800004080000080e8007e
:1008580071d8200001087800004080006400400042
:10086800f1a72900010878000040800066004000d8
:1008780001ac2000010878000040800068004000ba
:10088800f1532f0001087800207f200040408800a5
:100898000628ef000080fa00000006000000fa00b9
:1008a80005003700100020001800070040408000b5
:1008b800201db000404088004140800000302600e4
:1008c800808f5000f7ff3400003026004040880039
:1008d8000080fa00000006000000fa00c902a80023
:1008e8009660a8006100a8006900a8006105800062
:1008f800f0ff28000080600000e0a000600588008c
:100908008660a9000080fa00000006000200fa00d4
:10091800000f78001428ef0000c429001008880090
:1009280021058000f0ff28000080600000e0a000a2
:10093800200588009460a80005e1a80000000000d8
:10094800a04080009e0f5000fdff390005e1a9007e
:100958000080fa00000006000200fa009002200061
:10096800303a8800213a8000f0f32f0000806000c0
:10097800203a8800213a800000fe2f0000806000a5
:10098800203a88001200200080072000a1092000da
:1009980033742000804978008149780082497800c2
:1009a800120020006004200071052000237420003c
:1009b8008049780081497800824978000000000069
:1009c800113a8000000027008080600000002100ac
:1009d800808f5000faff3a0000000000113a8000b2
:1009e80000022000008060000000e000fbff3200f1
:1009f80050c7a80051a7a800813a800000702000c5
:100a080001007000803a880051e7a800000000004b
:100a1800813a800000002400008060000000e000af
:100a2800fbff320030c52000202088002cff070083
:100a380056ff07007aff0700a7ff070001e3a80099
:100a480001e4a80095ff070001003700000000003e
:100a580030188000640060000000e00003003200ed
:100a680040198000000f78000643a9007018200084
:100a78009e007800808f500004003400603420000d
:100a88009e007800808f5000f0ff34004324a800b7
:100a98004304a800eeff3700801f7800811f78000c
:100aa800821f78000080200031198000c508dd0011
:100ab800310098001c03020000000000a000900014
:100ac800800420000008e600800078004388de00eb
:100ad800302288000623a90091e0a9004f01780080
:0c0ae800cf0078004f00780000400600ae
:020000040000fa
:100af400000800000a000000000000000a080000ce
:100b04000a00000000000000f60f00000a000000c8
:100b140000000000140800000200000000000000b3
:040b240000000000cd
:020000040000fa
:0200000401f009
:04000c008000000070
:020000040000fa
:0200000401f009
:040010006300000089
:020000040000fa
:0200000401f009
:040014005f00000089
:020000040000fa
:0200000401f009
:040018000f000000d5
:020000040000fa
:0200000401f009
:04001c00c20000001e
:00000001FF
